:100000000C942D000C9428020C944F020C94760250
:100010000C941F030C941F030C941F030C941F03D8
:100020000C941F030C941F030C941F030C941F03C8
:100030000C941F030C941F030C941F030C941F03B8
:100040000C941F030C941F030C941F030C941F03A8
:100050000C941F0300600066800011241FBECFE5D2
:10006000D8E0DEBFCDBFE4E5F0E040E017C0B591D9
:10007000A59135912591059107FD0CC0959185912C
:10008000EF01F92FE82F05900D92A217B307D9F7CA
:10009000FE0104C01D92A217B307E1F7E935F4078A
:0E00A00031F70E94DD010C94E302F894FFCFCB
:1000AE00411138C0813091F028F08230D9F0833080
:1000BE0029F108952AB381E090E002C0880F991FBC
:1000CE006A95E2F7809582238ABB089527B381E073
:1000DE0090E002C0880F991F6A95E2F780958223FF
:1000EE0087BB089524B381E090E002C0880F991F6A
:1000FE006A95E2F78095822384BB089521B381E04F
:10010E0090E002C0880F991F6A95E2F780958223CE
:10011E0081BB0895413099F5813089F028F0823005
:10012E00C9F0833011F108952AB381E090E002C046
:10013E00880F991F6A95E2F7822B8ABB089527B321
:10014E0081E090E002C0880F991F6A95E2F7822B3A
:10015E0087BB089524B381E090E002C0880F991FF9
:10016E006A95E2F7822B84BB089521B381E090E07B
:10017E0002C0880F991F6A95E2F7822B81BB089502
:10018E00411138C0813091F028F08230D9F083309F
:10019E0029F108952BB381E090E002C0880F991FDA
:1001AE006A95E2F7809582238BBB089528B381E090
:1001BE0090E002C0880F991F6A95E2F7809582231E
:1001CE0088BB089525B381E090E002C0880F991F87
:1001DE006A95E2F78095822385BB089522B381E06C
:1001EE0090E002C0880F991F6A95E2F780958223EE
:1001FE0082BB0895413099F5813089F028F0823024
:10020E00C9F0833011F108952BB381E090E002C064
:10021E00880F991F6A95E2F7822B8BBB089528B33E
:10022E0081E090E002C0880F991F6A95E2F7822B59
:10023E0088BB089525B381E090E002C0880F991F16
:10024E006A95E2F7822B85BB089522B381E090E098
:10025E0002C0880F991F6A95E2F7822B82BB089520
:10026E008130C9F028F0823049F18330C9F1089508
:10027E0085B796B7A7B7B8B78E7F85BF96BFA7BF0E
:10028E00B8BF85B796B7A7B7B8B7826085BF96BF18
:10029E00A7BFB8BF089585B796B7A7B7B8B781609F
:1002AE0085BF96BFA7BFB8BF85B796B7A7B7B8B774
:1002BE00826085BF96BFA7BFB8BF089585B796B7B2
:1002CE00A7B7B8B7816085BF96BFA7BFB8BF85B7C0
:1002DE0096B7A7B7B8B78D7F85BF96BFA7BFB8BF74
:1002EE0085B796B7A7B7B8B78E7F85BF96BFA7BF9E
:1002FE00B8BF85B796B7A7B7B8B78D7F85BF96BF7E
:06030E00A7BFB8BF08956F
:100314008130C9F028F0823049F18330C9F1089561
:1003240085B796B7A7B7B8B78B7F85BF96BFA7BF6A
:10033400B8BF85B796B7A7B7B8B7886085BF96BF6B
:10034400A7BFB8BF089585B796B7A7B7B8B78460F5
:1003540085BF96BFA7BFB8BF85B796B7A7B7B8B7CD
:10036400886085BF96BFA7BFB8BF089585B796B705
:10037400A7B7B8B7846085BF96BFA7BFB8BF85B716
:1003840096B7A7B7B8B7877F85BF96BFA7BFB8BFD3
:1003940085B796B7A7B7B8B78B7F85BF96BFA7BFFA
:1003A400B8BF85B796B7A7B7B8B7877F85BF96BFDD
:0603B400A7BFB8BF0895C9
:1003BA0040E062E083E00E94570040E063E083E0AF
:1003CA000E94570040E062E081E00E94570041E04D
:1003DA0065E083E00E94570041E066E083E00E9406
:1003EA00570041E067E083E00E94570086EB92E005
:1003FA000E940C0385EC92E00E94110384ED92E0C6
:10040A000E94160382E00E94370180E00E948A015E
:10041A0081E00E949D020E94EE020E94F8020E9460
:10042A0002030E941B0340E065E083E00E94C700CC
:10043A0040E066E083E00E94C70040E067E083E0B6
:06044A000E94C700F0CF84
:100450001F920F920FB60F9211242F933F934F9339
:100460005F936F937F938F939F93AF93BF93EF931C
:10047000FF93E0916000F09161000995FF91EF9189
:10048000BF91AF919F918F917F916F915F914F91AC
:0E0490003F912F910F900FBE0F901F90189567
:10049E001F920F920FB60F9211242F933F934F93EB
:1004AE005F936F937F938F939F93AF93BF93EF93CE
:1004BE00FF93E0916200F09163000995FF91EF9137
:1004CE00BF91AF919F918F917F916F915F914F915E
:0E04DE003F912F910F900FBE0F901F90189519
:1004EC001F920F920FB60F9211242F933F934F939D
:1004FC005F936F937F938F939F93AF93BF93EF9380
:10050C00FF93E0916400F09165000995FF91EF91E4
:10051C00BF91AF919F918F917F916F915F914F910F
:0E052C003F912F910F900FBE0F901F901895CA
:10053A00882319F0813059F0089584B795B7A6B782
:10054A00B7B78F7B84BF95BFA6BFB7BF089584B7DF
:10055A0095B7A6B7B7B7806484BF95BFA6BFB7BF24
:02056A000895F2
:10056C0041E065E083E00E94C7002FEF89E698E147
:0E057C00215080409040E1F700C0000008953B
:10058A0041E066E083E00E94C7002FEF89E698E128
:0E059A00215080409040E1F700C0000008951D
:1005A80041E067E083E00E94C7002FEF89E698E109
:0E05B800215080409040E1F700C000000895FF
:1005C600EC010E9424030E942303CE010E9425030E
:0605D600CE010E9421038A
:1005DC008BB79CB7ADB7BEB780648BBF9CBFADBFAC
:0405EC00BEBF0895F1
:1005F0008BB79CB7ADB7BEB780688BBF9CBFADBF94
:04060000BEBF0895DC
:100604008BB79CB7ADB7BEB780628BBF9CBFADBF85
:04061400BEBF0895C8
:0A0618009093610080936000089544
:0A0622009093630080936200089536
:0A062C009093650080936400089528
:080636008FB780688FBF0895A3
:04063E000C94000018
:040642000E945500BD
:02064600089515
:02064800089513
:02064A00089511
:00000001FF
